{
  "_format": "hh-sol-artifact-1",
  "contractName": "Beatblock",
  "sourceName": "contracts/Beatblock.sol",
  "abi": [
    {
      "inputs": [
        {
          "internalType": "uint256",
          "name": "_nftPrice",
          "type": "uint256"
        },
        {
          "internalType": "uint256",
          "name": "_totalNFTs",
          "type": "uint256"
        },
        {
          "internalType": "uint256[3]",
          "name": "_prizeDistribution",
          "type": "uint256[3]"
        }
      ],
      "stateMutability": "nonpayable",
      "type": "constructor"
    },
    {
      "anonymous": false,
      "inputs": [
        {
          "indexed": false,
          "internalType": "address[3]",
          "name": "winners",
          "type": "address[3]"
        },
        {
          "indexed": false,
          "internalType": "uint256[3]",
          "name": "prizes",
          "type": "uint256[3]"
        }
      ],
      "name": "ContestFinalized",
      "type": "event"
    },
    {
      "anonymous": false,
      "inputs": [
        {
          "indexed": true,
          "internalType": "address",
          "name": "buyer",
          "type": "address"
        },
        {
          "indexed": true,
          "internalType": "uint256",
          "name": "tokenId",
          "type": "uint256"
        }
      ],
      "name": "TicketPurchased",
      "type": "event"
    },
    {
      "anonymous": false,
      "inputs": [
        {
          "indexed": true,
          "internalType": "address",
          "name": "voter",
          "type": "address"
        },
        {
          "indexed": true,
          "internalType": "address",
          "name": "artist",
          "type": "address"
        }
      ],
      "name": "VoteCasted",
      "type": "event"
    },
    {
      "inputs": [],
      "name": "buyTicket",
      "outputs": [],
      "stateMutability": "payable",
      "type": "function"
    },
    {
      "inputs": [
        {
          "internalType": "address",
          "name": "artist",
          "type": "address"
        }
      ],
      "name": "castVote",
      "outputs": [],
      "stateMutability": "nonpayable",
      "type": "function"
    },
    {
      "inputs": [],
      "name": "finalizeContest",
      "outputs": [],
      "stateMutability": "nonpayable",
      "type": "function"
    },
    {
      "inputs": [],
      "name": "nextTokenId",
      "outputs": [
        {
          "internalType": "uint256",
          "name": "",
          "type": "uint256"
        }
      ],
      "stateMutability": "view",
      "type": "function"
    },
    {
      "inputs": [],
      "name": "nftPrice",
      "outputs": [
        {
          "internalType": "uint256",
          "name": "",
          "type": "uint256"
        }
      ],
      "stateMutability": "view",
      "type": "function"
    },
    {
      "inputs": [],
      "name": "owner",
      "outputs": [
        {
          "internalType": "address",
          "name": "",
          "type": "address"
        }
      ],
      "stateMutability": "view",
      "type": "function"
    },
    {
      "inputs": [
        {
          "internalType": "uint256",
          "name": "",
          "type": "uint256"
        }
      ],
      "name": "prizeDistribution",
      "outputs": [
        {
          "internalType": "uint256",
          "name": "",
          "type": "uint256"
        }
      ],
      "stateMutability": "view",
      "type": "function"
    },
    {
      "inputs": [],
      "name": "remainingNFTs",
      "outputs": [
        {
          "internalType": "uint256",
          "name": "",
          "type": "uint256"
        }
      ],
      "stateMutability": "view",
      "type": "function"
    },
    {
      "inputs": [
        {
          "internalType": "uint256",
          "name": "",
          "type": "uint256"
        }
      ],
      "name": "ticketOwners",
      "outputs": [
        {
          "internalType": "address",
          "name": "",
          "type": "address"
        }
      ],
      "stateMutability": "view",
      "type": "function"
    },
    {
      "inputs": [],
      "name": "totalNFTs",
      "outputs": [
        {
          "internalType": "uint256",
          "name": "",
          "type": "uint256"
        }
      ],
      "stateMutability": "view",
      "type": "function"
    },
    {
      "inputs": [
        {
          "internalType": "address",
          "name": "",
          "type": "address"
        }
      ],
      "name": "votes",
      "outputs": [
        {
          "internalType": "uint256",
          "name": "",
          "type": "uint256"
        }
      ],
      "stateMutability": "view",
      "type": "function"
    },
    {
      "inputs": [
        {
          "internalType": "uint256",
          "name": "",
          "type": "uint256"
        }
      ],
      "name": "winners",
      "outputs": [
        {
          "internalType": "address",
          "name": "",
          "type": "address"
        }
      ],
      "stateMutability": "view",
      "type": "function"
    },
    {
      "stateMutability": "payable",
      "type": "receive"
    }
  ],
  "bytecode": "0x608060405234801561001057600080fd5b50604051610a03380380610a0383398101604081905261002f916100d0565b600080546001600160a01b0319163317905560018390556002829055600382815561005e906005908390610067565b50505050610162565b8260038101928215610095579160200282015b8281111561009557825182559160200191906001019061007a565b506100a19291506100a5565b5090565b5b808211156100a157600081556001016100a6565b634e487b7160e01b600052604160045260246000fd5b600080600060a084860312156100e557600080fd5b83519250602080850151925085605f86011261010057600080fd5b604051606081016001600160401b0381118282101715610122576101226100ba565b6040528060a087018881111561013757600080fd5b604088015b81811015610153578051835291840191840161013c565b50505080925050509250925092565b610892806101716000396000f3fe6080604052600436106100ab5760003560e01c806375794a3c1161006457806375794a3c146101635780638da5cb5b14610179578063a2fb1175146101b1578063d8bff5a5146101d1578063eb2dbcf6146101fe578063edca914c1461023457600080fd5b806304bffefd146100b75780630d0e96da146100e05780630d39fc81146100f65780631729f9d51461010c57806353358fc41461012357806354c237b71461014357600080fd5b366100b257005b600080fd5b3480156100c357600080fd5b506100cd60035481565b6040519081526020015b60405180910390f35b3480156100ec57600080fd5b506100cd60025481565b34801561010257600080fd5b506100cd60015481565b34801561011857600080fd5b5061012161023c565b005b34801561012f57600080fd5b5061012161013e366004610700565b610417565b34801561014f57600080fd5b506100cd61015e366004610730565b610553565b34801561016f57600080fd5b506100cd60045481565b34801561018557600080fd5b50600054610199906001600160a01b031681565b6040516001600160a01b0390911681526020016100d7565b3480156101bd57600080fd5b506101996101cc366004610730565b61056a565b3480156101dd57600080fd5b506100cd6101ec366004610700565b60096020526000908152604090205481565b34801561020a57600080fd5b50610199610219366004610730565b6008602052600090815260409020546001600160a01b031681565b61012161058a565b6000546001600160a01b0316331461028b5760405162461bcd60e51b815260206004820152600d60248201526c2737ba103a34329027bbb732b960991b60448201526064015b60405180910390fd5b600060025460015461029d919061075f565b905060006040518060600160405280606460056000600381106102c2576102c261077c565b01546102ce908661075f565b6102d89190610792565b815260200160646005600101546102ef908661075f565b6102f99190610792565b81526020016064600560020154610310908661075f565b61031a9190610792565b9052600a5481516040519293506001600160a01b039091169181156108fc0291906000818181858888f1935050505015801561035a573d6000803e3d6000fd5b50600b5460208201516040516001600160a01b039092169181156108fc0291906000818181858888f19350505050158015610399573d6000803e3d6000fd5b50600c5460408083015190516001600160a01b039092169181156108fc0291906000818181858888f193505050501580156103d8573d6000803e3d6000fd5b507f7908be830fc0682f409f71351e566b8601c840f25e8579acbd1321950a60c3cc600a8260405161040b9291906107b4565b60405180910390a15050565b336001600160a01b03166008600060016004546104349190610819565b81526020810191909152604001600020546001600160a01b03161461049b5760405162461bcd60e51b815260206004820152601760248201527f596f7520646f206e6f74206f776e2061207469636b65740000000000000000006044820152606401610282565b33600090815260096020526040902054156104f15760405162461bcd60e51b8152602060048201526016602482015275165bdd481a185d9948185b1c9958591e481d9bdd195960521b6044820152606401610282565b6001600160a01b03811660009081526009602052604081208054916105158361082c565b90915550506040516001600160a01b0382169033907fc4bfea56d023dc354a6e1649f3d6e114e28a306b3e281116b4d9d6c89098fa6690600090a350565b6005816003811061056357600080fd5b0154905081565b600a816003811061057a57600080fd5b01546001600160a01b0316905081565b6001543410156105eb5760405162461bcd60e51b815260206004820152602660248201527f496e73756666696369656e74204554482073656e7420666f72207469636b657460448201526520707269636560d01b6064820152608401610282565b60006003541161063d5760405162461bcd60e51b815260206004820152601960248201527f4e6f206d6f7265207469636b65747320617661696c61626c65000000000000006044820152606401610282565b6004805460009081526008602052604080822080546001600160a01b03191633908117909155925490519092917f0668f5b446eb814fe35b3206f43f14bd8567ba04ddaf7a3ee56516929ab22ccb91a36004805490600061069d8361082c565b9091555050600380549060006106b283610845565b91905055506001543411156106fe5760015433906108fc906106d49034610819565b6040518115909202916000818181858888f193505050501580156106fc573d6000803e3d6000fd5b505b565b60006020828403121561071257600080fd5b81356001600160a01b038116811461072957600080fd5b9392505050565b60006020828403121561074257600080fd5b5035919050565b634e487b7160e01b600052601160045260246000fd5b808202811582820484141761077657610776610749565b92915050565b634e487b7160e01b600052603260045260246000fd5b6000826107af57634e487b7160e01b600052601260045260246000fd5b500490565b60c08101818460005b60038110156107e55781546001600160a01b03168352602090920191600191820191016107bd565b505050606082018360005b600381101561080f5781518352602092830192909101906001016107f0565b5050509392505050565b8181038181111561077657610776610749565b60006001820161083e5761083e610749565b5060010190565b60008161085457610854610749565b50600019019056fea264697066735822122071bcb9626de99fc101ab3f33ca435a15a66c00ca26a12d8c9714b4347653664064736f6c63430008140033",
  "linkReferences": {},
  "deployedLinkReferences": {}
}